:020000040800F2
:10000000C006002029020008071C0008FD1A00088D
:10001000051C00081F0400080B2100080000000058
:100020000000000000000000000000000B1C0008A1
:100030004106000800000000091C00080D1C000813
:10004000430200084302000843020008430200087C
:10005000430200084302000843020008430200086C
:10006000430200084302000843020008430200085C
:10007000430200084302000843020008430200084C
:10008000430200084302000843020008430200083C
:10009000430200084302000843020008430200082C
:1000A000430200084302000843020008A11C0008A4
:1000B000430200084302000843020008430200080C
:1000C00043020008430200084302000843020008FC
:1000D00043020008430200084302000843020008EC
:1000E00043020008430200084302000843020008DC
:1000F00043020008430200084302000843020008CC
:1001000000000000000000000000000043020008A2
:1001100043020008430200084302000843020008AB
:10012000430200084302000843020008430200089B
:100130004302000843020008000000000000000025
:1001400043020008430200084302000800000000C8
:10015000000000000000000000000000000000009F
:1001600000000000000000004302000843020008F5
:100170004302000800000000000000000000000032
:10018000000000004302000800F002F800F03CF814
:100190000AA090E8000C82448344AAF10107DA45E2
:1001A00001D100F031F8AFF2090EBAE80F0013F0F8
:1001B000010F18BFFB1A43F0010318476C20000021
:1001C0008C200000103A24BF78C878C1FAD85207B2
:1001D00024BF30C830C144BF04680C6070470000C1
:1001E0000023002400250026103A28BF78C1FBD840
:1001F000520728BF30C148BF0B6070471FB501F0E0
:10020000F5FF1FBD10B510BD00F0CFF81146FFF788
:10021000F5FF01F08BFF00F0EDF803B4FFF7F2FFFC
:1002200003BC00F0F5F80000094880470948004782
:10023000FEE7FEE7FEE7FEE7FEE7FEE7FEE7FEE796
:10024000FEE7FEE704480549054A064B70470000F3
:10025000911C000889010008C0000020C006002091
:10026000C0020020C002002053EA020C00F06980A6
:100270002DE9F04B4FF00006002B1FBFB3FA83F5BA
:1002800003FA05F424FA05F65E4012BF1643B2FAEB
:1002900082F502FA05F4C5F120051EBF22FA05FC1D
:1002A00044EA0C04203556EA044C4FEA144418BFC3
:1002B000641C4FF000084FF00009904271EB030CF2
:1002C00039D3002919BFB1FA81F701FA07F6B0FA5C
:1002D00080F700FA07F6C7F120071EBF20FA07FCD7
:1002E00046EA0C062037B6FBF4FCA7EB0507103FE7
:1002F00007F01F0BCBF120060CFA0BFB2CFA06F6CD
:1003000044BFB3460026202FA4BF5E464FF0000B2B
:100310005BEA060C08BF4FF0010B19EB0B09ABFBB6
:10032000027C48EB0608C01B06FB02CC0BFB03CC8F
:1003300071EB0C01C1E70B46024641464846BDE859
:10034000F08B13B54FF000004FF00001AFF30080C9
:10035000BDE81C4070474FF0000200B513469446BC
:100360009646203922BFA0E80C50A0E80C50B1F10D
:100370002001BFF4F7AF090728BFA0E80C5048BF21
:100380000CC05DF804EB890028BF40F8042B08BFBF
:10039000704748BF20F8022B11F0804F18BF00F8BB
:1003A000012B7047704770477047754600F02CF876
:1003B000AE4605006946534620F00700854618B052
:1003C00020B5FFF73FFFBDE820404FF000064FF09B
:1003D00000074FF000084FF0000B21F00701AC467A
:1003E000ACE8C009ACE8C009ACE8C009ACE8C00999
:1003F0008D46704710B50446AFF300802046BDE837
:100400001040FFF70ABF0000004870475C00002062
:1004100001491820ABBEFEE7260002007047FEE748
:10042000DFF818A2DFF814C2844C08B54FF4802717
:10043000AAF1040BACF10C0C203C4FF0FF39FA1779
:10044000002107EB12763211C2EBC205F0E000BFCB
:10045000B1EB261F02D2CCF800100BE009EB2618F6
:100460004B4688450ED2B1EB420F0BD2C1EB420393
:10047000CCF80030236843F004032360236823F0A2
:100480000103CEE003EB4208884507D202EB4208A5
:10049000884503D9534201EB43080AE002EB420EC0
:1004A000AEF10108884507D2B1EB820F04D2C1EB4F
:1004B0008208CAF80080B5E003EB8208884507D2BD
:1004C00002EB8208884503D9534201EB83080CE014
:1004D00002EB8208CDF80080A8F1010888450ED211
:1004E000B1EB4E0F0BD2C1EB4E08CBF80080236866
:1004F00043F480732360236823F4806391E003EB6B
:100500004E08884506D28D4204D9A2EB820301EB46
:10051000430808E0A5F1010888450ED2B1EBC20FEF
:100520000BD2C1EBC208CBF80080236843F4806390
:100530002360236823F4807373E003EBC2088845CB
:1005400007D202EBC208884503D9534201EBC30826
:100550000CE002EBC208A8F10108884512D2DDF8D0
:100560000080B1EB480F0DD2C1EB4808334B083B7C
:10057000C3F80080236843F010032360236823F04E
:1005800040034EE0DDF8008003EB480888450BD2BD
:1005900002EB420808EBC208884505D9534203EB39
:1005A000830301EB43080CE002EB420808EBC208AE
:1005B000A8F10108884510D2B1EB8E0F0DD2C1EB26
:1005C0008E081E4B083BC3F80080236843F04003AD
:1005D0002360236823F0100323E009EB8E038B4292
:1005E0000AD202EB820303EBC2038B4204D9A2EBD3
:1005F000820301EB83030BE002EB820303EBC203F4
:100600005B1E8B420ED2B1EB450F0BD2C1EB450303
:10061000CCF80030236843F001032360236823F003
:1006200004032360002300E05B1C8342FCD3491CCD
:10063000B1EB450F3FF603AF0AE70000402C014045
:10064000704700002DE9F04FDFF8AC91002309F16D
:10065000040A03250AF1040B85B04FF0010C0F27A3
:100660000BF1040EBFE000BF0CFA03F6324075D068
:100670000C7904F00304012C01D0022C1BD18468F6
:1006800000945C0005FA04F80494009C24EA080431
:100690000094D1F80C80049C08FA04F8009C48EA05
:1006A0000408C0F808804468B4430E79C6F3001605
:1006B0009E40264346600C79E443A4070AD0C468F0
:1006C0004FEA430805FA08F6B4438E6806FA08F6BE
:1006D0002643C6600C7904F00304022C10D1DC0818
:1006E00000EB84040294246A5E074FEAD66807FA96
:1006F00008F6B4430E6906FA08F62643029C266201
:1007000004684FEA430805FA08F6B4430E7906F088
:10071000030606FA08F6264306604C6814F4403FC8
:1007200060D0364CA66946F00106A661A46923F0A4
:10073000030604F001040094314C34440294A4688C
:100740009E074FEA167807FA08F6B443B0F1904FC7
:1007500005D02C4EB04204D1012612E042E0002622
:100760000FE0294EB04201D102260AE0274EB042E6
:1007700001D1032605E0264EB04201D1042600E057
:10078000052606FA08F62643029CA660D9F8006002
:100790004C46D1F8048096435FEAC83800D516432A
:1007A0002660DAF800405646D1F8048094435FEAA8
:1007B000883800D514433460DBF800405E46D1F839
:1007C000048094435FEAC82800D514433460DEF8FF
:1007D00000407646D1F8048094435FEA882800D52B
:1007E000144334605B1C0A6832FA03F47FF43CAFB4
:1007F00005B0BDE8F08F0000000401400010024089
:10080000000001400004004800080048000C0048B7
:100810000010004801488068704700000000002078
:10082000024881680278114481607047000000200E
:10083000074810B5016841F010010160032000F085
:100840006DF80F2000F006F800F024F8002010BD2D
:100850000020024070B50D4D04464FF47A7128789F
:10086000B1FBF0F00A490968B1FBF0F000F034FD8B
:1008700048B9102C07D200222146501E00F02EF855
:1008800000206C6070BD012070BD000000000020E1
:100890000C000020094808B5816941F0010181611F
:1008A000816901F001010091C16941F08051C1618C
:1008B000C06900F08050009008BD000000100240A8
:1008C000002809DB00F01F0201219140400980004F
:1008D00000F1E020C0F8001170470000F0B40E4BAA
:1008E0001B680C46C3F30223C3F10705042D00D98E
:1008F0000425191D072901D2002300E0DB1E012673
:1009000006FA05F1491E214099409E40761E164088
:100910003143F0BC01F0FABB0CED00E0064900F0F9
:10092000070208684FF6FF03184040EA0220034A16
:1009300010430860704700000CED00E00000FA056D
:100940002DE9F84F044600680026804DC0036ED59F
:10095000E869C00008D4E86940F08050E861E869BF
:10096000012600F08050009079480168C90512D432
:100970000168804641F480710160FFF74BFF074634
:1009800005E000BFFFF746FFC01B642835D8D8F844
:100990000000C005F6D5286A10F4407053D0A18835
:1009A00001F4407181424ED0286A4FF4803191FAAF
:1009B000A1F2B2FA82F29700664A4FF0010817449A
:1009C00020F44070C7F8008491FAA1F1B1FA81F1E6
:1009D00002EB81010023C1F800342862C00732D045
:1009E000FFF718FF074641F2883A4FF0020907E087
:1009F000FFF710FFC11B514502D90320BDE8F88F56
:100A000099FAA9F0B0FA80F040F040024946B8EBFC
:100A1000521F01D12A680CE091FAA1F2B2FA82F2D7
:100A200042F04002B1EB521F02D12A6A01E015E008
:100A30006A6A99FAA9F1B1FA81F101F01F0108FA85
:100A400001F00242D4D0286A616820F44070084363
:100A500028621EB1E86920F08050E8612078C00764
:100A600005D0286BA16820F0030008432863207894
:100A7000800705D5286BE16820F4403008432863DF
:100A80002078400705D5286B216920F440200843D1
:100A900028632078800605D5286BE16920F01000D6
:100AA000084328632068800305D56868A16B20F49B
:100AB0008000084368602078400605D5286B216ACD
:100AC00020F02000084328632078000705D5286B14
:100AD000616920F44010084328632078C00605D5DA
:100AE000286BA16920F44000084328632088800512
:100AF00005D56868E16A20F4000008436860207842
:100B0000000605D5E86A616A20F4F8700843E862D7
:100B10002088C00505D5E86AA16A20F4785008430A
:100B2000E8622088C00405D5286B216B20F4807012
:100B3000084328632088800405D5286B616B20F466
:100B4000007008432863002058E7000000100240AE
:100B500000700040000042422DE9F0470F460500BA
:100B600069D04A4E306800F00700B84209D23068B8
:100B700020F0070038433060306800F00700B842CA
:100B800059D12878424C800705D56068A96820F0C3
:100B9000F000084360602878C0073DD069680120F4
:100BA00001290DD0022923D05FF0020393FAA3F2AA
:100BB000B2FA82F242F02002520904D0226803E025
:100BC0004FF40033F2E7626A93FAA3F3B3FA83F3C4
:100BD00003F01F03984002422DD0606820F003000C
:100BE00008436060FFF716FE804641F288390CE04A
:100BF0004FF00073DAE700BFFFF70CFEA0EB08012F
:100C0000494502D90320BDE8F0876068696800F0B3
:100C10000C00B0EB810FEFD1306800F00700B84254
:100C20000BD9306820F0070038433060306800F09E
:100C30000700B84201D00120E5E72878400705D534
:100C40006068E96820F4E060084360602878000785
:100C500006D56068296920F4605040EAC1006060F0
:100C600000F01EF86168F02292FAA2F201F0F001A1
:100C7000B2FA82F2D140074A515CC8400649086086
:100C800006480068FFF7E6FD0020BCE700200240B0
:100C900000100240162200080C0000200400002072
:100CA000174A10B55168174801F00C03042B02D005
:100CB000082B01D0401010BD4FF4701494FAA4F426
:100CC00001F47013B4FA84F4E3400F4CD26AE45C8C
:100CD0000F2393FAA3F302F00F02B3FA83F3DA407F
:100CE000094B1033C9039A5C06D500231946FFF758
:100CF000BBFAA0FB040110BD0448A4FB000110BD19
:100D0000001002400024F400F621000800093D0014
:100D10002DE9F84F050071D02878FC4EC0074FF040
:100D2000010425D070686704C0F38100012807D052
:100D30007068C0F3810002281BD17068C00318D509
:100D400097FAA7F0B0FA80F040F02000400901D0F7
:100D5000306800E0706A97FAA7F1B1FA81F101F00A
:100D60001F0104FA01F1084265D068680028D2D05A
:100D700061E06868B0F5803F0BD010B1B0F5A02FEE
:100D800017D0306820F480303060306820F4802044
:100D900002E0306840F480303060F06AA96820F0EA
:100DA0000F000843F062686820B3FFF733FD804608
:100DB0000AE0306840F480203060EAE7FFF72AFD5F
:100DC000A0EB0800642871D897FAA7F0B0FA80F079
:100DD00040F02000400901D0306800E0706A97FAC6
:100DE000A7F1B1FA81F101F01F0104FA01F1084203
:100DF000E4D020E0FFF70EFD804607E0C2E000BF30
:100E0000FFF708FDA0EB08006428DCD897FAA7F0EC
:100E1000B0FA80F040F02000400901D0306800E0D6
:100E2000706A97FAA7F1B1FA81F101F01F0104FA93
:100E300001F10842E4D12878DFF8D48280074FF02E
:100E4000000A4FF0020730D570684FF0F80B10F031
:100E50000C0F07D07068C0F38100022827D170689A
:100E6000C00324D497FAA7F0B0FA80F040F0200035
:100E7000400901D0306800E0706A97FAA7F1B1FA32
:100E800081F101F01F0104FA01F1084202D0286942
:100E9000012877D130689BFAABF220F0F80168693D
:100EA000B2FA82F29040014331605AE064E128696D
:100EB00088B394FAA4F0B0FA80F048F82040FFF725
:100EC000A9FC814606E000BFFFF7A4FCA0EB0900E7
:100ED00002289AD897FAA7F0B0FA80F040F02000E4
:100EE000400901D0306800E0706A97FAA7F1B1FAC2
:100EF00081F101F01F0104FA01F10842E4D03068E9
:100F00009BFAABF26969B2FA82F220F0F8009140E4
:100F10000843306025E0FFE794FAA4F0B0FA80F0CF
:100F200048F820A0FFF776FC814605E0FFF772FC49
:100F3000A0EB09000228CCD897FAA7F0B0FA80F00D
:100F400040F02000400901D0306800E0706A97FA54
:100F5000A7F1B1FA81F101F01F0104FA01F1084291
:100F6000E4D1287800076CD5A869A8B394FAA4F056
:100F7000B0FA80F008EB8000C0F88044FFF74AFC2C
:100F8000814607E0A4E100BFFFF744FCA0EB0900A5
:100F900002289ED897FAA7F0B0FA80F040F06000DF
:100FA000B4EB501F01D130680BE097FAA7F0B0FA0C
:100FB00080F040F06000B7EB501F01D1306A00E0D4
:100FC000706A97FAA7F1B1FA81F101F01F0104FAF2
:100FD00001F21042D8D034E0FFE794FAA4F1B1FA5C
:100FE00081F108EB8101C1F880A4FFF713FC814671
:100FF00006E000BFFFF70EFCA0EB090002289AD81C
:1010000097FAA7F0B0FA80F040F06000B4EB501F00
:1010100001D130680BE097FAA7F0B0FA80F040F009
:101020006000B7EB501F01D1306A00E0706A97FA98
:10103000A7F1B1FA81F101F01F0104FA01F21042A7
:10104000D8D12878400768D5F0694FF00009C00072
:1010500009D4F06940F08050F061F0694FF0010967
:1010600000F0805000902B480168C90512D4016837
:1010700041F480710160FFF7CDFB834606E000BFBD
:10108000FFF7C8FBA0EB0B00642875D82148006867
:10109000C005F5D5E86801280AD008B1052811D0A7
:1010A000306A20F001003062306A20F0040002E073
:1010B000306A40F001003062E86868B3FFF7AAFBCD
:1010C00083460DE0306A40F004003062F0E700BF74
:1010D000FFF7A0FBA0EB0B0141F2883081424BD817
:1010E00097FAA7F0B0FA80F040F04000B4EB501F40
:1010F00001D1306813E097FAA7F0B0FA80F040F021
:101100004000B7EB501F09D1306A08E000100240E0
:1011100000004242007000400CE040E0706A97FA24
:10112000A7F1B1FA81F101F01F0104FA01F21042B6
:10113000CED02DE0FFF76EFB834607E0FFF76AFB9A
:10114000A0EB0B0141F28830814215D897FAA7F045
:10115000B0FA80F040F04000B4EB501F01D130688D
:101160000CE097FAA7F0B0FA80F040F04000B7EB3F
:10117000501F02D1306A01E083E0706A97FAA7F14C
:10118000B1FA81F101F01F0104FA01F21042D5D148
:10119000B9F1000F03D0F06920F08050F061E869E8
:1011A00080B37168C1F38101022977D04FF080715B
:1011B0004F000228504609D091FAA1F1B1FA81F10D
:1011C00048F82100FFF726FB05465DE0894691FAC5
:1011D000A1F1B1FA81F1C24648F82100FFF71AFBEC
:1011E000804605E0FFF716FBA0EB0800022848D870
:1011F00097FAA7F0B0FA80F040F02000400902D042
:10120000306801E066E0706A97FAA7F1B1FA81F1FF
:1012100001F01F0104FA01F10842E3D1D5E90810F9
:101220000843716821F474110843706099FAA9F0B9
:10123000B0FA80F04AF82040FFF7ECFA054604E0E7
:10124000FFF7E8FA401B02281BD897FAA7F0B0FA7C
:1012500080F040F02000400901D0306800E0706A62
:1012600097FAA7F1B1FA81F101F01F0104FA01F137
:101270000842E5D02EE000BFFFF7CCFA401B022861
:1012800002D90320BDE8F88F97FAA7F0B0FA80F0F2
:1012900040F02000400902D0306801E00BE0706AA5
:1012A00097FAA7F1B1FA81F101F01F0104FA01F1F7
:1012B0000842E1D10EE00128E4D070682A6A00F407
:1012C0008031914204D1696A00F47010884201D0E3
:1012D0000120D7E70020D5E710B5401EB0F1807F90
:1012E00001D3012010BD4FF0E02460610F21601791
:1012F00000F00CFF0020A06107202061002010BD3D
:10130000704770477047000030B590F83C20012AC4
:101310003AD0012280F83C20CA688B6822F44072DF
:101320001A434B6822F480621A430B6822F400626D
:101330001A430B6922F480521A434B6922F400527B
:101340001A438B6A22F480421A430B8B22F47022D8
:1013500042EA03420D4D03680024AB4202D00C4D1B
:10136000AB420CD18D8C22F4700242EA0552CD6959
:1013700022F080722A43096A22F000720A435A64FA
:1013800080F83C40002030BD022030BD002C0140E0
:1013900000340140F0B590F83C20012A36D00124F9
:1013A00080F83C40022280F83D200268536895682E
:1013B000174E184FB24201D0BA4204D123F4700C38
:1013C0004B6843EA0C0323F0700C0B6843EA0C03F0
:1013D00053600268B2420DD0B2F1804F0AD00E4B7A
:1013E0009A4207D00D4B9A4204D0BA4202D00C4B1D
:1013F0009A4204D1896825F080031943916080F8EE
:101400003D40002180F83C100846F0BD0220F0BDB0
:10141000002C01400034014000040040000800405E
:101420000040014010B50446022249B104290ED003
:10143000082913D094F84700012816D0012010BDC8
:1014400094F844000128F9D184F844200FE094F87E
:1014500045000128F2D184F8452008E094F84600C0
:101460000128EBD184F8462001E084F847200422CB
:10147000206800F080FC2068416C41F40041416428
:101480001049206888420ED0B0F1804F0BD00E4931
:10149000884208D00D49884205D00D49884202D0C3
:1014A0000C49884207D181680B4A1140062906D0B1
:1014B000B1F5803F03D0016841F0010101600020D7
:1014C00010BD0000002C0140000400400008004056
:1014D00000340140004001400700010010B5040045
:1014E00003D094F83D0010B107E0012010BD0020AA
:1014F00084F83C00204600F023F8022084F83D00E8
:10150000211D206800F0D2FB012084F8480084F8F7
:101510003E0084F83F0084F8400084F8410084F8DD
:10152000420084F8430084F8440084F8450084F8BD
:10153000460084F8470084F83D00002010BD0000FC
:1015400010B586B0044614216846FEF704FF16491C
:101550002068884225D11548816941F40061816184
:10156000816901F400610591416941F40011416113
:101570004069002100F4001005904FF400400090F5
:101580000220CDE90101CDE9031069460848FFF7C3
:1015900059F8002211461B20FFF7A0F91B20FFF786
:1015A0008FF906B010BD0000002C01400010024071
:1015B0000010004870B5044690F83C000025012852
:1015C00017D0012684F83C60022084F83D00226890
:1015D00090682F4B184020F47F4090600868502896
:1015E00038D00DDC20284FD005DC90B3102811D165
:1015F0004AE0022070BD302846D040280AD13BE0A6
:1016000060282FD070280DD0B0F5805F03D0B0F5E2
:10161000005F12D0012584F83D60002084F83C0072
:10162000284670BDCB68D1E90121206800F0B0FBED
:101630002068816841F0770109E0CB68D1E9012198
:10164000206800F0A5FB2068816841F4804181603A
:10165000E1E719E0CA684968206800F033FD5021CD
:10166000206806E0CA684968206800F03CFD6021F7
:10167000206800F097FBCEE7CA684968206800F050
:1016800021FD40212068F4E7226801461046F0E77A
:1016900088FFFEFF704770B50446006801694FF08F
:1016A0000005C943890715D4C168C943890711D406
:1016B000E91E0161012020772068806980072046AB
:1016C00002D0FFF7E7FF04E000F0D2F8204600F078
:1016D00094F9257720680169C943490717D4C1687F
:1016E000C943490713D46FF0040101610220207738
:1016F0002068806910F4407F204602D0FFF7CAFFBF
:1017000004E000F0B5F8204600F077F9257720686E
:101710000169C943090716D4C168C943090712D42E
:101720006FF008010161042020772068C0698007FC
:10173000204602D0FFF7AEFF04E000F099F8204603
:1017400000F05BF9257720680169C943C90617D401
:10175000C168C943C90613D46FF0100101610820A4
:1017600020772068C06910F4407F204602D0FFF740
:1017700091FF04E000F07CF8204600F03EF9257768
:1017800020680169C943C90708D1C168C943C907AD
:1017900004D1891E0161204600F0AEF9206801697C
:1017A000C943090609D4C168C943090605D46FF0C5
:1017B000800101612046FFF7A4FD20680169C9434B
:1017C000C90509D4C168C943090605D46FF48071FD
:1017D00001612046FFF794FD20680169C94349066D
:1017E00009D4C168C943490605D46FF040010161BD
:1017F000204600F082F920680169C94389060BD4AC
:10180000C168C943890607D46FF0200101612046F1
:10181000BDE87040FFF776BD70BD000010B586B022
:10182000044614216846FEF796FD0E49206888425A
:1018300016D10D48416941F4001141614069002110
:1018400000F4001005904FF4FE4000900220CDE916
:1018500001010321CDE9031069460448FEF7F2FEB9
:1018600006B010BD002C01400010024000100048DE
:10187000704770B5044690F83C0000260D460128DC
:101880000BD0012084F83C000C2A4AD007DC82B13E
:10189000042A20D0082A06D131E0022070BD102A87
:1018A00053D0142A63D00126002084F83C0030462F
:1018B00070BD206800F07EFA2068816941F008015F
:1018C00081612068816921F004018161206881695A
:1018D0002A69114311E0206800F0BAFA2068816992
:1018E00041F4006181612068816921F48061816136
:1018F000206881692A6941EA02218161D4E7206870
:1019000000F0EEFA2068C16941F00801C161206869
:10191000C16921F00401C1612068C1692A691143CC
:1019200011E0206800F024FB2068C16941F40061E7
:10193000C1612068C16921F48061C1612068C16909
:101940002A6941EA0221C161AEE7206800F04AFB42
:101950002068416D41F0080141652068416D21F02A
:10196000040141652068416D2A69114311E0206836
:1019700000F070FB2068416D41F400614165206812
:10198000416D21F4806141652068416D2A6941EA19
:101990000221416588E710B5040003D094F83D00AA
:1019A00010B107E0012010BD002084F83C00204663
:1019B00000F022F8022084F83D00211D206800F08C
:1019C00075F9012084F8480084F83E0084F83F004F
:1019D00084F8400084F8410084F8420084F8430011
:1019E00084F8440084F8450084F8460084F84700F1
:1019F00084F83D00002010BD7047704730B50446A4
:101A0000022269B1042912D0082917D00C291CD050
:101A1000102921D094F84300012824D0012030BDA2
:101A200094F83E000128F9D184F83E201DE094F896
:101A30003F000128F2D184F83F2016E094F84000DE
:101A40000128EBD184F840200FE094F841000128F0
:101A5000E4D184F8412008E094F842000128DDD167
:101A600084F8422001E084F843200122206800F03D
:101A700075F9194B20681949194A984209D08842CA
:101A800007D0904205D0174DA84202D0164DA8426B
:101A900003D1456C45F400454564206898420CD05C
:101AA000B0F1804F09D0114B984206D0104B9842AC
:101AB00003D0884201D0904207D181680D4A11407D
:101AC000062906D0B1F5803F03D0016841F001013D
:101AD0000160002030BD0000002C014000340140B6
:101AE0000040014000440140004801400004004023
:101AF000000800400700010070477047FEE7000043
:101B000030B599B000241794189415941694129433
:101B100013941C2168461494FEF71DFC2C2107A881
:101B2000FEF719FC36483549C0E900144FF6FF713D
:101B3000C0E90241046144618461FFF7CFFC08B150
:101B400072B6FEE74FF4805515A92D481595FFF79D
:101B500031FD08B172B6FEE72948FFF71CFF08B156
:101B600072B6FEE71294139412A925481494FFF755
:101B700011FC08B172B6FEE76020CDE900040294C2
:101B8000039404940594002269461D480694FFF7C7
:101B900070FE08B172B6FEE7042269461848FFF7E6
:101BA00068FE08B172B6FEE7082269461448FFF7DE
:101BB00060FE08B172B6FEE70C2269461048FFF7D6
:101BC00058FE08B172B6FEE7079408944FF400502F
:101BD000CDE90C04CDE90A4509940003CDE90E4096
:101BE000109407A906481194FFF78EFB08B172B64E
:101BF000FEE70348FFF712FE19B030BD002C01408C
:101C000010000020FEE7FEE770477047FEF708BEB1
:101C100010B59EB028216846FEF79DFB142119A837
:101C2000FEF799FB3C210AA8FEF795FB0120010471
:101C30000290CDE9000104904FF4E010CDE90810C6
:101C4000022407946846FFF763F808B172B6FEE70E
:101C50000F20CDE9190400244FF4A060CDE91B400A
:101C60004FF480601D90022119A8FEF775FF08B19E
:101C700072B6FEE74FF480500A9016940AA8FEF759
:101C80005FFE002801D072B6FEE71EB010BD000056
:101C90000248016841F470010160704788ED00E07E
:101CA0000148FFF7F8BC0000100000202DE9F043C8
:101CB0000268234B234D244E244C4FF08049984218
:101CC00007D0484505D0A84203D0B04201D0A04279
:101CD00003D122F070074A683A431D4FDFF874C001
:101CE000DFF8748098420DD048450BD0A84209D047
:101CF000B04207D0A04205D0B84203D0604501D021
:101D0000404503D122F44075CA682A434D6922F048
:101D100080022A4302608A68C2620A68826298422C
:101D200007D0A04205D0B84203D0604501D040455D
:101D300001D10969016301214161BDE8F08300001F
:101D4000002C014000040040000800400034014025
:101D500000400140004401400048014010B501F03E
:101D60001F030121046A99408C430462016A9A406E
:101D70001143016210BD10B501F01F030421046A74
:101D800099408C430462016A9A401143016210BD7C
:101D900010B5846842EA032224F47F440A432243B4
:101DA000826010BD826822F070020A4342F007018F
:101DB000816070472DE9F043026A22F0010202625D
:101DC000056A436882691C4C25F0020522400C68B4
:101DD00022F0030214438A68194E2A43174D194F03
:101DE000DFF864C0DFF86490A84207D0B04205D0A5
:101DF000B84203D0604501D0484506D122F008081A
:101E0000CA6842EA080222F00402A84207D0B0429F
:101E100005D0B84203D0604501D0484505D14D6991
:101E200023F440731D438B692B43436084614968ED
:101E300041630262BDE8F0838FFFFEFF002C01408A
:101E4000003401400040014000440140004801408E
:101E5000F0B5026A22F010020262056A42688369E4
:101E6000194C1B4E23400C6823F4407343EA0424AE
:101E700025F020038D6843EA0513144DA84201D0D4
:101E8000B04206D1CF6823F0800343EA071323F062
:101E90004003A8420AD0B04208D00E4DA84205D057
:101EA0000D4DA84202D00D4DA84207D14D6922F434
:101EB000406242EA85028D6942EA8502426084619D
:101EC000496881630362F0BDFF8FFFFE002C014073
:101ED00000340140004001400044014000480140FE
:101EE000F0B5026A22F480720262056A4368C26930
:101EF000194C1B4E22400C6822F00302144325F4B7
:101F000000728D6842EA0522144DA84201D0B04209
:101F100006D1CF6822F4006242EA072222F48062EE
:101F2000A8420AD0B04208D00E4DA84205D00E4DAE
:101F3000A84202D00D4DA84207D14D6923F4405369
:101F400043EA05138D6943EA05134360C461496898
:101F5000C1630262F0BD00008FFFFEFF002C014054
:101F6000003401400040014000440140004801406D
:101F700030B5026A22F480520262046A4268C36980
:101F8000124D24F400542B400D6823F4407343EAAF
:101F900005238D6844EA05340D4DA8420BD00D4D44
:101FA000A84208D00C4DA84205D00C4DA84202D042
:101FB0000B4DA84204D14D6922F4804242EA8512B9
:101FC0004260C36149680164046230BDFF8FFFFE57
:101FD000002C014000340140004001400044014019
:101FE0000048014030B5026A22F480320262046A7D
:101FF0004268436D114D2B400D681D4324F400339E
:102000000C8943EA04430E4CA0420BD00D4CA04275
:1020100008D00D4CA04205D00C4CA04202D00C4C74
:10202000A04204D14C6922F4803242EA0422426088
:10203000456549688165036230BD00008FFFFEFF82
:10204000002C0140003401400040014000440140A8
:102050000048014030B5026A22F480120262046A2C
:102060004268436D114D24F400142B400D6843EA7F
:1020700005230D8944EA05540D4DA8420BD00D4DA2
:10208000A84208D00C4DA84205D00C4DA84202D061
:102090000B4DA84204D14D6922F4802242EA8522E8
:1020A000426043654968C165046230BDFF8FFFFE31
:1020B000002C014000340140004001400044014038
:1020C0000048014010B5036A046A24F00104046268
:1020D000846924F0F00444EA021423F00A020A435B
:1020E0008461026210BD10B5036A23F0100303621D
:1020F0008369046A23F4704343EA023224F0A003A4
:1021000043EA01118261016210BDFEE70907090E71
:10211000002804DB00F1E02080F80014704700F094
:102120000F0000F1E02080F8141D704786B0FEF724
:102130007FFBFFF76DFD2948416941F48001416152
:10214000416901F480010591416941F40011416147
:10215000406900F400100590FFF7D2FC00212048F0
:10216000FFF74CFC00211E48FFF75CF904211C48D6
:10217000FFF744FC04211A48FFF754F908211848D6
:10218000FFF73CFC08211648FFF74CF90C211448D6
:10219000FFF734FC14216846FEF7DDF84FF40040E9
:1021A00000901220019002200021CDE9020104904C
:1021B00069460C48FEF746FA09480068C16841F0D4
:1021C0008001C1600848016821F040010160016898
:1021D00021F4806101606420FEF722F900100240C2
:1021E0001000002000100048202C01404FF04070EB
:1021F000E1EE100A704702030405060708090A0BFE
:102200000C0D0E0F10100102030405060708090A41
:102210000B0C0D0E0F10000000000000000001026A
:1022200003040607080900004822000800000020F7
:1022300010000000C401000858220008100000200F
:10224000B0060000E00100080100000010000000DE
:082250000000000000127A00FA
:040000050800018965
:00000001FF
